{
    "contractName": "MultiSigWallet",
    "abi": [
        {
            "inputs": [
                {
                    "internalType": "address[]",
                    "name": "_owners",
                    "type": "address[]"
                },
                {
                    "internalType": "uint256",
                    "name": "_threshold",
                    "type": "uint256"
                }
            ],
            "stateMutability": "nonpayable",
            "type": "constructor"
        },
        {
            "anonymous": false,
            "inputs": [
                {
                    "indexed": false,
                    "internalType": "bytes32",
                    "name": "txHash",
                    "type": "bytes32"
                }
            ],
            "name": "ExecutionFailure",
            "type": "event"
        },
        {
            "anonymous": false,
            "inputs": [
                {
                    "indexed": false,
                    "internalType": "bytes32",
                    "name": "txHash",
                    "type": "bytes32"
                }
            ],
            "name": "ExecutionSuccess",
            "type": "event"
        },
        {
            "inputs": [
                {
                    "internalType": "bytes32",
                    "name": "dataHash",
                    "type": "bytes32"
                },
                {
                    "internalType": "bytes",
                    "name": "signatures",
                    "type": "bytes"
                }
            ],
            "name": "checkSignatures",
            "outputs": [],
            "stateMutability": "view",
            "type": "function"
        },
        {
            "inputs": [
                {
                    "internalType": "address",
                    "name": "to",
                    "type": "address"
                },
                {
                    "internalType": "uint256",
                    "name": "value",
                    "type": "uint256"
                },
                {
                    "internalType": "bytes",
                    "name": "data",
                    "type": "bytes"
                },
                {
                    "internalType": "uint256",
                    "name": "_nonce",
                    "type": "uint256"
                },
                {
                    "internalType": "uint256",
                    "name": "chainid",
                    "type": "uint256"
                }
            ],
            "name": "encodeTransactionData",
            "outputs": [
                {
                    "internalType": "bytes32",
                    "name": "",
                    "type": "bytes32"
                }
            ],
            "stateMutability": "pure",
            "type": "function"
        },
        {
            "inputs": [
                {
                    "internalType": "address",
                    "name": "to",
                    "type": "address"
                },
                {
                    "internalType": "uint256",
                    "name": "value",
                    "type": "uint256"
                },
                {
                    "internalType": "bytes",
                    "name": "data",
                    "type": "bytes"
                },
                {
                    "internalType": "bytes",
                    "name": "signatures",
                    "type": "bytes"
                }
            ],
            "name": "execTransaction",
            "outputs": [
                {
                    "internalType": "bool",
                    "name": "success",
                    "type": "bool"
                }
            ],
            "stateMutability": "payable",
            "type": "function"
        },
        {
            "inputs": [
                {
                    "internalType": "address",
                    "name": "",
                    "type": "address"
                }
            ],
            "name": "isOwner",
            "outputs": [
                {
                    "internalType": "bool",
                    "name": "",
                    "type": "bool"
                }
            ],
            "stateMutability": "view",
            "type": "function"
        },
        {
            "inputs": [],
            "name": "nonce",
            "outputs": [
                {
                    "internalType": "uint256",
                    "name": "",
                    "type": "uint256"
                }
            ],
            "stateMutability": "view",
            "type": "function"
        },
        {
            "inputs": [],
            "name": "ownerCount",
            "outputs": [
                {
                    "internalType": "uint256",
                    "name": "",
                    "type": "uint256"
                }
            ],
            "stateMutability": "view",
            "type": "function"
        },
        {
            "inputs": [
                {
                    "internalType": "uint256",
                    "name": "",
                    "type": "uint256"
                }
            ],
            "name": "owners",
            "outputs": [
                {
                    "internalType": "address",
                    "name": "",
                    "type": "address"
                }
            ],
            "stateMutability": "view",
            "type": "function"
        },
        {
            "inputs": [],
            "name": "threshold",
            "outputs": [
                {
                    "internalType": "uint256",
                    "name": "",
                    "type": "uint256"
                }
            ],
            "stateMutability": "view",
            "type": "function"
        },
        {
            "stateMutability": "payable",
            "type": "receive"
        }
    ],
    "bytecode": "6080604052346101765761081e80380380610019816101d3565b9283398101906040818303126101765780516001600160401b03811161017657810182601f82011215610176578051926001600160401b038411610162578360051b9160208061006a8186016101d3565b80978152019382010191821161017657602001915b8183106101b3578460208501519060035461017657600182106101765780518211610176575f5b815181101561019b57600581901b8201602001516001600160a01b03169081151580610191575b8061017a575b15610176575f5491680100000000000000008310156101625760018301805f5583101561014e577f290decd9548b62a8d60345a988386fc84ba6bc95484008f6362f93160ef3e56390920180546001600160a01b031916831790555f918252600160208190526040909220805460ff191683179055016100a6565b634e487b7160e01b5f52603260045260245ffd5b634e487b7160e01b5f52604160045260245ffd5b5f80fd5b50815f52600160205260ff60405f205416156100d3565b50308214156100cd565b50906003555160025560405161062590816101f98239f35b82516001600160a01b03811681036101765781526020928301920161007f565b6040519190601f01601f191682016001600160401b038111838210176101625760405256fe6080604052600436101561001a575b3615610018575f80fd5b005b5f3560e01c8063025e7c27146100995780630db02622146100945780632f54bf6e1461008f57806342cde4e81461008a578063a67dd50914610085578063affed0e014610080578063d01aa3181461007b5763ed516d510361000e576103d6565b610296565b610279565b610220565b610166565b610129565b6100f6565b346100f25760203660031901126100f2576004355f548110156100f2575f80527f290decd9548b62a8d60345a988386fc84ba6bc95484008f6362f93160ef3e56301546001600160a01b0316608052607f1960a0016080f35b5f80fd5b346100f2575f3660031901126100f2576020600254604051908152f35b600435906001600160a01b03821682036100f257565b346100f25760203660031901126100f2576001600160a01b0361014a610113565b165f526001602052602060ff60405f2054166040519015158152f35b346100f2575f3660031901126100f2576020600354604051908152f35b634e487b7160e01b5f52604160045260245ffd5b90601f8019910116810190811067ffffffffffffffff8211176101b957604052565b610183565b67ffffffffffffffff81116101b957601f01601f191660200190565b81601f820112156100f2578035906101f1826101be565b926101ff6040519485610197565b828452602083830101116100f257815f926020809301838601378301015290565b346100f25760a03660031901126100f257610239610113565b602435906044359067ffffffffffffffff82116100f2576020926102646102719336906004016101da565b6064359160843593610412565b604051908152f35b346100f2575f3660031901126100f2576020600454604051908152f35b60803660031901126100f2576102aa610113565b6024359060443567ffffffffffffffff81116100f2576102ce9036906004016101da565b60643567ffffffffffffffff81116100f2576102ee9036906004016101da565b600454916102ff4684838888610412565b935f1984146103d157610397956103205f95946001879601600455876104b9565b602083519301915af1903d156103cc573d61033a816101be565b906103486040519283610197565b81525f60203d92013e5b811561039b576040519081527fdc29884a71d2bb98d3c53dc09718be05c7bfd142b7773a5c5cf2517629290ac090602090a15b60405190151581529081906020820190565b0390f35b6040519081527fdbe42d02a4e07d7eeff2874efe172540c93b297d206f6d691c9782a257323e3290602090a1610385565b610352565b61047d565b346100f25760403660031901126100f25760243567ffffffffffffffff81116100f25761040a6100189136906004016101da565b6004356104b9565b9390602060e09261047794956040519687948486019960018060a01b03168a52604086015260a0606086015280519384918260c0880152018686015e5f858486010152608084015260a0830152601f801991011681010301601f198101835282610197565b51902090565b634e487b7160e01b5f52601160045260245ffd5b156100f257565b906041820291808304604114901517156103d157565b6040513d5f823e3d90fd5b600354906104c8821515610491565b6104dd83516104d684610498565b1115610491565b5f92835b8385106104ef575050505050565b60205f6105906105158886906041020160208101519060ff604160408301519201511692565b6040939192935186810190610566816105588d85603c917f19457468657265756d205369676e6564204d6573736167653a0a3332000000008252601c8201520190565b03601f198101835282610197565b51902092604051948594859094939260ff6060936080840197845216602083015260408201520152565b838052039060015afa156105ea575f516001916001600160a01b0390811690821611806105c9575b6105c190610491565b9401936104e1565b506001600160a01b0381165f9081526001602052604090205460ff166105b8565b6104ae56fea2646970667358221220386af8bf190fdd729d37a012d867cea3032c4c1d1dec40e9f8725c219adb515564736f6c634300081d0033",
    "sourcePath": "/root/demo/MultiSigWallet.sol",
    "compiler": {
        "name": "solc",
        "version": "0.8.29+commit.ab55807c"
    },
    "functionHashes": {
        "checkSignatures(bytes32,bytes)": "ed516d51",
        "encodeTransactionData(address,uint256,bytes,uint256,uint256)": "a67dd509",
        "execTransaction(address,uint256,bytes,bytes)": "d01aa318",
        "isOwner(address)": "2f54bf6e",
        "nonce()": "affed0e0",
        "ownerCount()": "0db02622",
        "owners(uint256)": "025e7c27",
        "threshold()": "42cde4e8"
    },
    "gasEstimates": {
        "creation": {
            "codeDepositCost": "314600",
            "executionCost": "infinite",
            "totalCost": "infinite"
        },
        "external": {
            "checkSignatures(bytes32,bytes)": "infinite",
            "encodeTransactionData(address,uint256,bytes,uint256,uint256)": "infinite",
            "execTransaction(address,uint256,bytes,bytes)": "infinite",
            "isOwner(address)": "2466",
            "nonce()": "2370",
            "ownerCount()": "2282",
            "owners(uint256)": "4411",
            "threshold()": "2326"
        },
        "internal": {
            "_setupOwners(address[] memory,uint256)": "infinite",
            "signatureSplit(bytes memory,uint256)": "infinite"
        }
    }
}